:020000040000FA
:10000000004000204D810100898101008B810100A9
:1000100000000000000000000000000000000000E0
:100020000000000000000000000000008D810100C1
:1000300000000000000000008F810100918101009C
:1000400093810100D93F0000B98201009381010032
:100050009381010000000000938101009381010061
:10006000010B0000F98401009381010093810100DC
:10007000938101009381010093810100938101002C
:10008000938101009381010093810100938101001C
:1000900093810100D57D0100B17D0100490C000074
:1000A000590C0000938101000000000000000000D6
:1000B0000000000000000000000000000000000040
:1000C00008B5054B054803331B1A062B03D9044B0F
:1000D000002B00D0984708BD10010020100100201F
:1000E000000000000648074908B5091A8910CB0F1F
:1000F0005918491003D0044B002B00D0984708BD75
:1001000010010020100100200000000010B5074C75
:100110002378002B09D1FFF7D3FF054B002B02D02A
:10012000044800E000BF0123237010BD1801002027
:1001300000000000C09F030008B5094B002B03D04E
:100140000848094900E000BF08480368002B02D1B5
:10015000FFF7C8FF08BD064B002BF9D09847F7E71B
:1001600000000000C09F03001C01002010010020BF
:1001700000000000144B002B00D1124B9D46402282
:1001800092029A1A924600218B460F461148124A53
:10019000121A2AF082F80D4B002B00D098470C4B16
:1001A000002B00D098470020002104000D000B48D0
:1001B00029F0F7FF21F00CF92000290029F021FD9A
:1001C00021F040F80000080000400020000000007E
:1001D0000000000010010020982F0020A913020049
:1001E0000379044AD35C002B00D183790248DB00F9
:1001F000C01870479E2D0020D8A6020010B5041C20
:10020000FFF7EEFF031C227903491B68034813F034
:1002100005FF14F019F8C046A2100300A8F9020067
:10022000002803D001210379014AD1547047C04608
:100230009E2D002008B5FFF7D3FF43680248181A27
:10024000431E9841C0B208BDFD01000038B5051C31
:100250000C1CFFF7C5FF0023A04209D04368281CEF
:100260009847044A2B79A41A034AE410D454012372
:10027000181C38BDD8A602009E2D0020F0B500271E
:100280000D1C85B003901E1C081C114B111C0097FF
:1002900002220EF0F1FAA81C800024F02EFD039B30
:1002A000041C03606B1E3D1C039343603368836032
:1002B000039B9D4208D20135AF00F05900210AF09E
:1002C000B9FDE719B860F3E7201C05B0F0BDC046E2
:1002D000FFFF000070B5051C00290CDB032905D8C1
:1002E000081C002418F044FD0808050501238C1E95
:1002F0009C43FE2601E00024F226B5210902314389
:10030000281C21F0E6FE002C04D00449281C2143BF
:1003100021F0DFFEAE61EC6170BDC04680B0000030
:10032000F7B5051C2C200E1C171C019324F0F7FCBC
:10033000041C057086608781072D01D0012D05D131
:10034000337872780A3B1B02134301E0064B5B5D76
:10035000E3816B461B79202063750423638424F0BA
:10036000CCFCA062201CFEBDB41003000023FA21C7
:10037000094A89001360094A1370094A1360094A3F
:100380001160094A1370094A111D0832D36701220E
:10039000CB67074B1A70704734010020BE2D002038
:1003A0003801002004000020C02D0020342E002041
:1003B000BF2D002008B5084B1A78002A08D1074B3A
:1003C0009B6C002B02D0FFF7D1FF03E030BFF2E7B8
:1003D00000221A7008BDC046BF2D0020342E002018
:1003E000837F0248002B00D10148704720F90200AA
:1003F00064F9020010B5A0241049E4054B7F081CE5
:100400005A1C002B05D1498C0D4B8B430D49635071
:100410000EE010335B00CB185988A123DB00E150BC
:10042000092A05D1012000F0F5FB0120404203E03C
:10043000054B42775200D05A10BDC046080000203C
:10044000F01F00000C050000640B030008B500233A
:10045000E021A02283770C4B0902D205D1500B4832
:10046000FFF7DEFE0A48FFF7DBFE0A48FFF7D8FE7B
:100470000948FFF7D5FE0948FFF7D2FE0848FFF705
:10048000CFFE084808BDC0460C05000058E6020033
:10049000BCE70200BCE60200B4E7020084E7020009
:1004A00068E60200B801030073B51C4D041C2B1D47
:1004B000DE6F002809D11A4D2B78002B2BD019485C
:1004C000194921F03BFF2C7027E010F003F8174B7F
:1004D000984202D1301C211C15E0154B2340062BFD
:1004E00005D0A30712D1134B22689A420ED1201CCB
:1004F00001A909F05DFA019B012B0CD1007826F0CF
:10050000C9F8011C301C21F019FF06E00A480B490C
:1005100027F0DFFCA864FFF729FF73BD342E00200D
:10052000C02D00200800002008E1020020E10200A8
:10053000070080FF5800030050FE0200BB100300BC
:10054000F7B5A123A021214AC905DB00CA50012229
:10055000C37F1F4D0D339A404A51C37F019501332C
:10056000DBB2032B00D10023C377011C031C3631FF
:10057000223300221A8002338B42FAD1C77F1549F9
:100580007B000133CB18591E0E78052171430126DB
:10059000351C1C78063309190F4C6118141DA54031
:1005A0002C1C09799219490041184D8C2C434C841C
:1005B000092AE8D10D37A023A122BE40DB05D200D5
:1005C0009E50828E01995A50F7BDC046F01F000020
:1005D0000C050000151103000800002070B5314C17
:1005E0008CB0A37F002B5BD0201CFFF7A9FF2E4A05
:1005F0002E4913680968063313608B4243D30025E4
:100600002B4B15601B78012B06D0022B3BD1201CF5
:10061000284921F093FE34E0274B1A1DD26F1E1C8F
:10062000002A2ED00833DB6F002B2AD007F0F6FD0E
:10063000684613F0E3FD002809D1204B18680AF042
:1006400033FC051C13F0F8FD07F0F2FD15E007F090
:10065000EFFD019B1A49186813F01EF800280CD111
:1006600001980FF037FF174B984203D116481749EE
:1006700022F003FB0025019BB364281CFFF714FF45
:1006800001E0FFF773FE0023228C6377FF33FF3313
:100690001A4205D0E12201200D49D20000F086FA6D
:1006A0000CB070BD080000203801002004000020BC
:1006B000BE2D002008E10200342E0020340100206D
:1006C0006CF9020028FA02008CAC0200C81003008A
:1006D000F5030000F0B5002485B0164D02930AAB77
:1006E0001B782E1D071C0835081C211C0192039342
:1006F000F467EC670AF09EFB0F4B019A18600F4BF2
:10070000F7671A606A460E4B127AE8671A700D4B4B
:100710001C700AF0C9FBFFF7C7FE01220A4B1C60E0
:100720000A4B1A70039BA34201D0FFF743FE05B0AA
:10073000F0BDC046342E002034010020040000200B
:10074000C02D0020BF2D002038010020BE2D00202C
:10075000F0B500242D4B8DB01D1D0833DC672C4BEC
:10076000EC6707AC40C901380093019405230EF0F3
:10077000B3F80798636805900293237B257A039367
:10078000244B277C0340062B05D0830718D1224B2E
:1007900002689A4214D106A909F00AF9069B002BB7
:1007A00030D0012B08D1002D06D1002F04D10078C4
:1007B00025F070FF059021E005980FF005FA0AE09A
:1007C0000FF088FE154B984206D1002D14D0012061
:1007D00005A912F071FA0590237C002B03D005982F
:1007E00010F052FC0590039B301C00930599029A6F
:1007F0002B1CFFF76FFF05E0002FE8D1301C059997
:1008000021F09CFD06480DB0F0BDC046342E0020FE
:10081000B4A70200070080FF5800030020E1020097
:10082000B801030030B5104B89B003AC20C90138C2
:100830000093019405230EF04FF802A9039809F0E4
:10084000B7F8227C237B02990092039A0FF0A6F955
:10085000237A011C0093281C62680023FFF73AFFEB
:10086000024809B030BDC0466CA80200B8010300C0
:10087000002208B5064B1A70064B02321A70064B5E
:10088000064A1B68063B1360FFF794FD08BDC0468F
:10089000BF2D0020BE2D00200400002038010020C4
:1008A00008B5FFF7E5FF014808BDC046B8010300E1
:1008B00010B5042901D8042A01D9094802E0092BFE
:1008C00002D908480AF0DEFE052461438A1882181E
:1008D000137101229A40131C028C1343038410BD30
:1008E000E8100300FC100300F8B548680C1C0F6802
:1008F0000FF0DAFE061CA0680FF0D6FE051CE068BB
:100900000FF0D2FE311C031C2A1C381CFFF7D0FF4D
:100910000048F8BDB801030008B5042901D8042A2D
:1009200002D904480AF0AEFE052359438A188018FC
:10093000007908BDE810030038B5104C051C211CD7
:100940000F48FFF783FC211C0E48FFF77FFC211C9A
:100950000D48FFF77BFC211C0C48FFF777FC211C9E
:100960000B48FFF773FC211C0A48FFF76FFC21F0CE
:100970006DFD01230848AB7738BDC046F8A60200DC
:1009800058E60200BCE70200BCE60200B4E7020041
:1009900084E7020068E60200B801030013B5041CF6
:1009A000A0680AF0A9FA019000280ED06368074AEF
:1009B000934205D0181C0121002201AB0AF044F932
:1009C0000FF0B2FF0028EBD0019816BDB80103006C
:1009D000F0B500240E1C85B0071C0393081C0E4BB9
:1009E000111C0094221C0DF047FFB01C800024F065
:1009F00084F9051C07604660B44209D0039BA70038
:100A0000D85900210AF016FAEF19B8600134F3E75B
:100A1000281C05B0F0BDC046FFFF00008022044B3B
:100A200052001A600123034A1360034A136070479F
:100A300000E100E00C8C0040008000408022054B6B
:100A40005200DA67044BFF3A5A600022034B1A60E7
:100A50007047C04604E100E0008000400C8C00407C
:100A600070B5002501261E4B1E4C1D601E4B1860E4
:100A70001E4BE650C046FFF7E1FF1D4A1D4BE660E6
:100A8000E25002221C4BC220E5500433E25092187F
:100A90000833E2508022C12312039B00E250053B41
:100AA000FF21FF3BE5504024144B80001A588A4335
:100AB000224380241A500C301A5824061202120ABB
:100AC00022431A5004301A588A433F390A431A50B5
:100AD000802212041A60802252041A6070BDC0463F
:100AE000302E0020008000403C010020FC0F000060
:100AF000701700004C0500000405000000E100E054
:100B000038B5224C224D636C002B0AD0002363645D
:100B1000204B1B689847A822D200AB580001C01890
:100B2000A850A36C1A4D002B0AD00022174B9A64D0
:100B3000184B5B689847184A0001AB58C018A8507A
:100B4000E36C134D002B0BD00022104BDA64114BD9
:100B50009B689847A922D200AB580001C018A85042
:100B6000236D0B49002B0FD00022084B0B481A6550
:100B70000B4A8B581B188B500A4A136806331360B4
:100B80008022094B12045A6038BDC046FC800040E8
:100B90000080004040000020440500007017000065
:100BA0004C050000302E0020FCE100E0F7B501917B
:100BB000032824D8134B8000C758C2230125124CA8
:100BC0009B00E75003191D64A825ED005E59B4464B
:100BD0000E4EA659921B6244D117090F8C466244EF
:100BE0001211013200920A49019A4250C121009A21
:100BF00089001201B618675000205E5101E0012003
:100C00004042FEBD14A90200008000404C050000D7
:100C10004000002003280BD8074B8000C158C22396
:100C2000064A9B00D150064A064BC250002001E004
:100C3000012040427047C04614A9020000800040D5
:100C4000DD2402004000002008B5024B1B689847D5
:100C500008BDC0463C01002010B50024054AA35839
:100C6000002B02D00021A15098470434102CF5D15C
:100C700010BDC04640010020074A89008B58002B58
:100C800006D188508021054A49045160181C01E0B2
:100C9000012040427047C04640010020FCE100E0D6
:100CA00008B508F045FA0023064A99008A58904290
:100CB00005D001330C2BF7D103480AF0E3FC181CD4
:100CC00008BDC046F4A902004B110300094A38B51B
:100CD0001378002B0CD1084D2C78E4B2002C07D1EE
:100CE0000068013313702B7003685B6898472C70A1
:100CF00038BDC046CB2D0020CA2D002010B5041CE5
:100D00000430FFF7E3FF606827F04CFC034B8000E2
:100D1000C0580623C000184310BDC046F4A9020005
:100D200038B5041C081CFFF7BBFF051C201DFFF78E
:100D3000CDFF606827F036FC024BA84200D0024B82
:100D4000181C38BD20F9020064F9020038B5041CF3
:100D5000081CFFF7A5FF051C201DFFF7B7FF0122A8
:100D6000AA40064B06481988114200D10548198847
:100D7000914300221980044B1A7038BD942D002035
:100D800020F9020064F90200C12D002038B50430BA
:100D9000FFF79CFF124C13482378002B1FD02078BC
:100DA0000021C0B211F088FF00232278934214D2B0
:100DB0000D495A088D5C01221A40920015412A1CE7
:100DC0000F252A40094D9200525906259900D2005C
:100DD00041182A438A600133E7E70023237038BDB6
:100DE000C12D0020A8F20200C22D0020F4A90200AB
:100DF00070B543885A1E0A2A21D80124201C984025
:100E00000F490A88024392B20A800E4A11780F29CC
:100E100015D811780C48E140415C1678C9B20F250D
:100E2000264202D029401B0100E0A9430B43117860
:100E3000DBB24908435413780133DBB2137070BD41
:100E4000942D0020C12D0020C22D0020FF2303225D
:100E5000DB05CB1810B59343042820D817F088FF82
:100E6000051F0E031500081C1AE0181C002118F0BD
:100E700069F9031E0B4813D00B4811E0181C19F038
:100E80001BF80121400008430AE080210906581898
:100E9000031C022093431843044BC01800E00020B9
:100EA00010BDC04620F9020064F9020000008080F5
:100EB000FF23DB0510B5041CC818032386B0984334
:100EC000DB180093002302A901931022673310F06E
:100ED000FFF902A9201C21F007FE02A82E2129F00B
:100EE000EAF900280FD102A8652129F0E4F90028C9
:100EF00009D102A86E2129F0DEF9002803D1201CB7
:100F0000024921F0F1FD06B010BDC046BB750300DB
:100F100030B51D1C002385B00C1C0093081C111C4F
:100F20001A1C01330DF0A8FC002C21D02868124BAC
:100F30000340062B06D0032318420DD10F4A016847
:100F4000914209D103A908F033FD002303990093CE
:100F50001A1C04F0FFF80CE00340022B09D00FF03C
:100F600007FC03239843013B1843054BC01800E0DE
:100F7000044805B030BDC046070080FF580003009C
:100F8000000080800200808070B5051C86B0101CB7
:100F900001910FF0EDFB041C0390681F182800D985
:100FA000BBE017F0E5FE0D10161B2A356678BABABD
:100FB000BABABA0D10161B2A356694999EA3A800DA
:100FC0000198211C52E00198211C18F0F7FD0190B6
:100FD0009AE00198211C18F0BFFCF8E7201C0021C2
:100FE00018F0B0F8002803D04E484F4923F07BFE9C
:100FF00001A803A921F0BAFA86E0201C002118F00C
:10100000A1F80028F0D10198211C18F0B3FADEE70E
:10101000201C002118F096F80028E5D1211C019829
:101020001CF03CF80021051C019018F08BF80028FA
:1010300007D0039A0023002A01DA80231B060193BC
:1010400062E00021281C18F083F8431E9841012417
:10105000039E404204400021301C18F079F8431EE2
:101060009841E4B284424FD0281C311C18F006F994
:10107000ADE7019D0021281C18F064F8002805D078
:10108000201C002118F064F80028ADD1281C211C78
:101090001CF0E4F89BE7201C002118F053F800280E
:1010A000A2D101A803A921F061FA03220220019B29
:1010B0001E49934303435B180493039B93430343E9
:1010C0005B1804A9059311F0F7FD031C26E00198B5
:1010D000211C18F03DF812E00198211C18F04CF882
:1010E0000DE00198211C18F02DF808E00198211C52
:1010F00018F038F803E00198211C18F047F80C4B61
:1011000000280BD10B4B09E00323019A02209A43DC
:10111000131C064A03439B1800E00023181C06B06A
:1011200070BDC0468CFD02005B1103000000808092
:1011300020F9020064F90200F7B5224B224C1B781B
:101140002268191D49005718895A50884905490DC8
:1011500041431E48161C0068891284460194A0254C
:101160007878ED05C0081F2809D001278740381C72
:10117000A1270133FF00E851DBB265460CE0144BB8
:101180005168E9506346002B03D01A1C66460023C1
:1011900000E063461D1C191C181D40001718805ADA
:1011A0004005400D844664465088AC46604380123A
:1011B000401AD4D0034A1370044B1D60019B1E607B
:1011C000FEBDC046CC2D0020B0010020B40100209F
:1011D0000C05000010B572B600220F4B18681A609B
:1011E00062B6904217D10D4B0D4A1B680D489342D1
:1011F00000D0101C1A7802705A8842805A684260E7
:10120000002219788A4206D25100441859180989D7
:1012100001322181F5E710BDB4010020B0010020AA
:101220005001002080010020044A054B1A60002371
:10123000044A1360044A13707047C04660AA020053
:10124000B0010020B4010020CC2D002008B5022000
:1012500002497822FFF7AAFC08BDC04639110000F8
:10126000421E084BFF3A10B59A4208D8041CFFF7FB
:10127000B1FF054B241144801860002001E00120DB
:10128000404210BD40410F00B4010020044B1B68D8
:10129000002B01D1034B1B68588800017047C046E2
:1012A000B4010020B00100203E4BF7B5041C0D1E18
:1012B0009D4200D91D1C8023DB005B1B0193FFF7BF
:1012C00089FF0122A24046680092164207D1231CE2
:1012D000A0210327C133FF339B00C9055F500027BE
:1012E00003789F4241DA391D490042185278D208EA
:1012F000A24202D1002D02D00DE00137F1E7009AA1
:10130000013BDBB29643037046609F420BDA043325
:101310005B001B5A06E0019B5B055A0D0B5ADB0A6A
:10132000DB0213430B520121851C037899421EDA1C
:101330002F1C0B1D5B001A5A2C895205520D4B1E97
:101340001E1D7600365A7605760D964204DDFE881F
:10135000023F7E81013BF3D2E40AE40205332243DB
:101360005B001A5201310235DFE7002D02D10E4B2E
:101370001860F7BD132BFAD8009A1D1D3243426046
:10138000019A6D005205510D2A5AE400D20AD20288
:101390000A432A525205520F4519224301336A70FB
:1013A0000370C0E7FF030000B401002070B5002106
:1013B000041CFFF779FF00200D4B1D682E78B0420A
:1013C00015DA031D5B00EB185A78111CD208A242F3
:1013D0000BD1082252420A435A700123A340A02293
:1013E0001C1C044BD205D45001E00130E7E770BD6E
:1013F000B00100200C050000F0B5067887B0B307F7
:1014000002D5002A00D007E1F307DB0FDBB202931D
:10141000002B0ED0824B0B40062B0AD003230B402F
:1014200003D1804C0D68A54202D0012A01D0F3E01F
:10143000029301920D1C041C73072BD50368876867
:10144000DE08F600BE19B74249D23868A84218D162
:10145000019B022B3FD1391C2368F21BD210083BA1
:10146000013A7D68381C23600831D20028F001FF62
:101470002368A068DF080023FF00C7193B607D6078
:1014800029E0029B002B28D1291C0FF0BBF8002873
:1014900023D0DDE74368002B51D0614B2B400593EF
:1014A000062B52D1E80823F0BEFB04900498616833
:1014B00017F002FD002600910391009BDF00A36856
:1014C000DF193868002847D0042860D0A84262D1CC
:1014D000019B022B68D0381C9FE00837B3E7019BC3
:1014E000012B00D098E02368D9086368994210D195
:1014F00004316160A068C90023F01DFC23686268A4
:10150000DB08D21ADB00A060D200C018002128F04E
:10151000C4FE07222068C308591CC90002400A43C0
:101520002260A268DB003E49D3181D60181C0D40E4
:10153000062D72D0012122788A4322706DE0019B32
:10154000012B69D100F070F8A7E70220291C09F0EF
:1015500009FB43100493A9E7019B311C012B5BD1CC
:101560002068C3080133DA000723034013432360D4
:10157000002E00D1391C00234B60059B0D60081C18
:10158000062B4AD0012223789343237045E0002E96
:101590001AD13E1C18E0029B002B15D1291C0FF01C
:1015A00031F8002810D093E723686168083B236076
:1015B0000098013017F080FCA368C900CB58002BBD
:1015C00000D004233B6086E700986168013017F083
:1015D00073FC039A0091914200D06EE7019B012BAE
:1015E0001AD1002E0ED023680833236000237360C5
:1015F000059B3560062B03D02378019A9343237013
:10160000301C0AE0201C00F00FF80498616817F005
:1016100053FC0391009150E7002007B0F0BDC04695
:10162000070080FF58000300F7B5041C0022436840
:10163000019301331749555A9D4206D20232442A7A
:10164000F8D15D08EB1801251D43E800A76823F0D9
:1016500066FB072322686560134001223D1C0026BB
:10166000236013432370A060019B9E420DD0296824
:10167000002907D0042905D0201C0122FFF7BCFE59
:101680006B68436001360835EEE7381C23F064FBD5
:10169000F7BDC046760B0300F8B5051C00230768AC
:1016A00086687A1C1149585A904206D20233442B5C
:1016B000F8D15308981801231843002428606C605F
:1016C000800023F02CFBA860BC420BD0A300F15893
:1016D000002905D0042903D0281C012220F0F7FF9F
:1016E0000134F1E7301C23F037FBF8BD760B030023
:1016F00008B50FF03DF8044918F02EF917F070FD09
:1017000023F0ABF8014808BD00007A44B80103009B
:1017100008B50EF0C9FF002801DD23F09EF801484E
:1017200008BDC046B801030008B50EF0BDFF002893
:1017300001DD23F08EF8014808BDC046B801030062
:10174000A3230021024A5B000248D1527047C046E1
:10175000342E0020B8010300A3230121024A5B00BC
:101760000248D1527047C046342E0020B801030011
:10177000A323044A5B00D35A0348002B00D103483B
:101780007047C046342E002020F9020064F90200A0
:1017900008B501F0CBFF014808BDC046B801030001
:1017A00010B50C4C002808D1FC34236D181C5A1CB1
:1017B0000FD0180121F095FD0BE008680EF074FFC2
:1017C000FC34031E044802DA01235B4200E01B09DB
:1017D000236510BD342E0020B80103000021F0B5B0
:1017E000041C85B0816421F09EF8E369256AA36337
:1017F000636AE563002B04DA221C06214032117073
:101800002EE0002B06D0221C052140321170013B36
:10181000636291E2002838D0A36A002B35D1211CE5
:10182000043340310B70226BAE4B606BD3185B00FE
:101830001B5A013D9D4200D17EE213D9E16A8A42E2
:1018400007D30831490023F076FAE36A606308336E
:10185000E362236B5A1C2263626B5B009D52636AD6
:101860000133D5E7236B9F4A9A185200125A9542CA
:1018700005D2013B2363636A013B6362F2E7954251
:1018800000D159E202230B7056E225696B1C02D18C
:101890004034002302E2201C20F0ECFF002800D19D
:1018A00026E1271C002340373B702369752B0FD09E
:1018B000622B05D16369722B11D001250B2309E03E
:1018C0000025722B08D163690125622B04D106E043
:1018D00001250A23002205E00A23009503E00225E2
:1018E0000B23012200923A78002A01D13B7002E0DA
:1018F0009A4200D020E2002D07D0201C20F0E3FF08
:10190000022D02D1201C20F0DEFF27222369029243
:10191000222B00D10293201C20F0D5FF0123029A34
:101920000393236993420AD16369934207D1201C30
:1019300020F0C9FF201C20F0C6FF032303930026DC
:1019400023690193013300D1B7E0039B012B03D13D
:10195000019B0A2B00D1B0E0039B9E4200D3B1E073
:10196000019B029A934206D1201C111C443001367F
:1019700001F0F4FA9DE0019B5C2B00D092E0201C6A
:1019800020F0A1FF009B2569002B03D0201C0199AA
:1019900044306EE0622D26D013D84E2D4ED008D89C
:1019A000222D6ED0272D6CD000260A2D00D180E08C
:1019B00047E05C2D65D0612D00D1B9E1552D40D1B6
:1019C0001BE0742D11D007D86E2D10D0722D12D0BF
:1019D000662D36D10C2554E0762D0AD00DD3022683
:1019E000782D17D02DE008254BE0092549E00A2580
:1019F00047E00B2545E00D2543E03B780B2B05D157
:101A0000201C5C21443001F0A9FA3AE00426752D2F
:101A100000D0B6190025013E2DD3201C20F053FF25
:101A20002369181C01930FF0E7FE002800D17BE129
:101A3000019825F05FFA2D014519ECE72A480AF0D4
:101A40000FF82B1C303B072B10D81D1C0326636995
:101A5000303B072B0FD8013E002E0CD0201C20F06D
:101A600032FF2369ED00303B5D19F0E7201C5C215B
:101A7000443001F073FA00266B1C1AD01B4B9D42B8
:101A80000DD83B780A2B05D1201C291C443001F0CD
:101A900065FA0DE0FF2D02D8E9B20B2B04D001232B
:101AA0003B7005E06B461979201C443021F04CFA5C
:101AB0000026201C20F007FF42E7039B9E4201D234
:101AC00003233B70201C311C443021F081FA201C80
:101AD000012120F028FF201C20F0CCFE002800D09F
:101AE000E3E629E1FFFFFF7FD7110300FFFF1000AE
:101AF000281C0FF069FE2169002803D15F2901D05D
:101B00007F2943D9251C0723261C40352B704436DA
:101B1000C9B2301C21F018FA201C20F0D4FE206934
:101B2000431C05D1301C21F0FDF90024061C16E0F1
:101B30000FF04AFE002801D0217CEAE720695F28E7
:101B4000FAD07F28F8D80FF04BFE0028F4D1E9E74F
:101B5000002800DAF0E00134222C00D1ECE0774BD1
:101B6000A200301CD15828F0B4FB0028F0D10D346D
:101B7000E4B22C70102C00D0DEE0714BA8331A6850
:101B80000F23002A00D1D6E0023BD4E0081C0FF05E
:101B900027FE002808D0251C216940352E290CD1AC
:101BA000092300262B7019E023692E2B53D160697D
:101BB0000FF016FE0028EED14DE0082300262B7012
:101BC00030290BD16269183313430122161C622B92
:101BD00004D06F2B02D0783B5E425E41271C443715
:101BE000381C01F0BBF9201C20F06DFE2069431C5D
:101BF00000D1A1E0002E15D12023021C9A43131E10
:101C0000452B0FD13C3B2B706521381C01F0A6F908
:101C1000201C20F058FE216902220B1C2B3B934311
:101C2000E4D1DDE70FF0D0FD002803D021692E2993
:101C300009D10DE020690FF0D3FD0028F6D123690A
:101C40002E2BF3D078E020230A1C9A434A2AC7D1CE
:101C500009232B70C4E700263A4D2F78002F0BD0B4
:101C60002369BB4208D0FD23633F3B405F425F4195
:101C7000ED1901360135F0E7201C20F024FE002F7D
:101C800002D14034012309E0212F09D123693D2BE2
:101C9000F7D1201C20F017FE4123403423704BE085
:101CA0002E2F0FD1251C236940352E2B42D163697D
:101CB0002E2B3FD1201C20F006FE201C20F003FE1E
:101CC0000C2338E0371C01352B781A1C0093FD23B8
:101CD000633A1A4211D16B78226901379A4207D1CF
:101CE000201C20F0F0FD009B3E1C652B03D104E07E
:101CF000009B632B01D00235E6E7221C124B4032D9
:101D00009B5D1370191C04229143422901D0442B7E
:101D100002D1A36A013305E0432901D0452B0BD141
:101D2000A36A013BA36207E00123051C3B70A8E600
:101D30000725A6E64A232B7005B0F0BD98AB02003C
:101D4000342E0020961103006C110300F7B5CC1C53
:101D5000A400071C201C0E1C019222F0CEFF221CA6
:101D6000051C054B4760866003600C3A01990C30F6
:101D700028F076FA281CFEBD20AC0200F8B5214DF3
:101D80002E687368012B3BD9B1685C1E0A5D0A2A74
:101D900036D1002C03DD621E885C0A2801D1221C8A
:101DA00005E0141CF5E7885C202802D101329A4234
:101DB000F9D3002C0BDD501C984208D1601E00287E
:101DC00005D001380F5C0A2F1AD0202FF7D0CB187E
:101DD000023B1B78141B3A3B59425941A408641832
:101DE000013C0DD3084F301C391C042221F031F87E
:101DF000381C042106F04CFE2B6904332B61EFE7FD
:101E0000F8BDC046B8010020A089030008B503480A
:101E10000021202228F041FA08BDC046942E00205F
:101E200008B5084B426818600020986018750138A2
:101E3000D860081C5A601A61996122F001FDFFF711
:101E40009DFF08BDB8010020F8B50378002B1ED017
:101E50000F4D041C286E002804D0211C28F039FAEC
:101E6000002814D0201C28F03EFA471C381C22F011
:101E700051FF061E0BD03A1C211C28F0F1F9054B2E
:101E8000054A1968043B99609342FAD12E66F8BD61
:101E9000342E0020AC2E0020902E0020F0B5BB4B3D
:101EA000021C18689E68416885B001911C1C002EB8
:101EB00000D0ACE0531E042B0FD80B1E61688B4280
:101EC00000D15AE1012A00D1F8E0022A05D12369A4
:101ED0006268934200D91EE151E1032A00D14CE12E
:101EE000042A00D1FDE0052A00D1F2E0062A05D13E
:101EF0002369019A9342AD416D4231E10B2A06D12B
:101F0000019B22690025991A21F062F80EE10E2A40
:101F100004D1E368002B00DBA3E030E1102A04D1F8
:101F2000E368062B00DC8CE029E1152A0AD123693D
:101F3000626861689A1A21F053F823696268002583
:101F40009E1A1FE10D2A0AD1914822F079FC2068DF
:101F500020F0E8FF6368C018FFF776FF1EE11B2A38
:101F600002D10123A3600AE1082A01D07F2A1AD1F5
:101F700062682169131C914200D800E19D1A8B42CE
:101F800005D08568ED5C202D06D10133F6E70126EA
:101F9000032D02DD033600E00126891B321C21F0EF
:101FA0001FF80127B9E0092A27D1616823698068F1
:101FB000784A4018591A03AB02F056FB061E00D1AE
:101FC000DDE00025431C0BD1A06922F039FC236819
:101FD0006168986823694018591A06F059FDA5E010
:101FE00023692068E918039B01355A1C03921A786B
:101FF00020F0DCFFB542F3D198E0131C203B5E2BB0
:1020000000D9BCE0216920F0DAFF01258EE000252F
:10201000012E08D14F2A03D05B2A7AD1593A00E029
:1020200004229A60ABE0022E3FD1111C30390929FD
:1020300003D803211A759960A1E09D60412A0DD152
:102040006EE755495A1C17339B00CB189968002935
:1020500000D194E06368E260436012E0422A19D143
:1020600057E7013BE3606268019B991A20F0B0FFDB
:10207000E368002B07DB1633474A9B00D318206820
:10208000996820F06AFF63682269D61A2268556849
:10209000ED1A77E0432A00D12AE7442A00D116E757
:1020A000482A0BD0462A6AD113E0032E2BD17E2A70
:1020B00022D11B7D312B01D0372B05D1002523697F
:1020C00062682F1C9E1A19E01A1CFB21343A0A423E
:1020D00005D10027019B22693E1C9D1A0EE0332B7F
:1020E0000AD12169019B0025994205D2012220F0E5
:1020F00077FF0025012700E02F1C2E1C0023A36082
:102100009E420BDC10E0042E03D1462AE1D0482A7F
:10211000D4D09D6033E0002701260025301C06F056
:10212000DBFC23699E1B2661002F19D02368019ACE
:102130005B68934204D2131C2269981A06F0DCFCF7
:10214000226823699168C8185168C91A06F0A0FC72
:10215000236858682369C01A401B06F0BDFC08E0DC
:10216000002D0CDD2368291C98682369C01806F02F
:102170008FFC2369ED18256101E0161C0EE0012695
:1021800076420BE00127002EC8DCCFE7B801002023
:10219000C51303008CAC0200342E0020301C05B0A7
:1021A000F0BDC046F0B52B4D87B003902B78002BC7
:1021B0001CD05AB2002A10DA80246E1C6D785C4064
:1021C000002D13D0631EDCB2FF2C0DD004AB981D84
:1021D0000121057006F06AFCF4E704AAD01D012174
:1021E00003702E1C06F062FC751CDFE705260398C1
:1021F00022F033FB0124B44226DA0025164F291CB5
:10220000381C221CFEF788FB6B4601901B79002BC3
:1022100014D0631E1A1C381C291C0293FEF77CFB89
:10222000031E0BD1381C291C221CFEF741FB6B46F8
:10223000381C1B79291C029AFEF73AFB0135052D43
:10224000DCD10134E4B2D6E7013E002ECFD107B095
:10225000F0BDC046661203000800002008B5C82083
:10226000FFF7A0FF004808BDB8010300F0B587B034
:10227000039205910D9A0399051C541A0CAA127821
:102280002021101C884305D0302A05D00CAA0292C8
:10229000012204E0224A00E0224A02921022019226
:1022A00080221A4005D0E30F1B195B10E71A1C1C93
:1022B00003E001210B4012D11F1C002C12DD261C53
:1022C000019B04969E4200DD04936B682868029986
:1022D000049A9847049BF61A002EF1DC03E0271CB1
:1022E000141C00E00024039B002B06D01A1C286855
:1022F0006B6805999847039BE418002F0DDDE419DE
:10230000019B3E1E9E4200DD1E1C28680299321C65
:102310006B689847BF1B002FF2DC201C07B0F0BD94
:102320002713030016130300F0B593B01F1C18AB5E
:1023300010CB05901B780D1C161C0793CB070BD4F4
:102340008B0703D1814B0A689A4205D0281C0EF0F6
:10235000ABF901254000054381231C4209D1079BAD
:10236000302B06D11A9B1B9A934200DA1A92002353
:102370001B93281C20F092FF0AAA131C00280DDBD7
:10238000A30703D52B231370123B05E0131C620730
:1023900004D520221A70192304AA9B18E20618D526
:1023A000022E03D130221A707A1C10E0082E08D1B8
:1023B00030221A70A20501D401330AE03A1C0E3211
:1023C00005E0102E05D130221A703A1C17325A70CF
:1023D000023300220AA91A705B1A0693A30600D5DD
:1023E0002C320EAB0B9310230C9300231B990D93EF
:1023F000012901DD40210C4304A9CB75FBB20096F5
:10240000610614D500210293019103922B1C0BA8A5
:102410000CA90DAA0AF096FB0378061C2D2B15D1EA
:1024200004AAD3750D9B0136013B0D930EE00AA95A
:102430000191029303922B1C0BA80CA90DAA0AF080
:1024400081FB1B9B061C012B4BDC02E01B9B012B21
:102450006ADC00273D1C630621D5172104ABC9188F
:102460000B78002B0AD000230122009301920598DB
:10247000FFF7FCFE1A9B2D18013B1A93069B002BBD
:102480000DD000230122009301920598069A0AA913
:10249000FFF7ECFE1A9B069A2D189B1A1A931B9BAA
:1024A000012B00DD1A93079B059800931A9B311CA2
:1024B00001930D9A231CFFF7D9FE2D18002F09D088
:1024C000202300220093019705982149131CFFF750
:1024D000CDFE2D180B980EAB984234D022F03CFC68
:1024E00031E00D9A1B9B93421CDB1A9A934206DA49
:1024F0000127D51A274004D02F1C002501E0002712
:102500003D1C01239C43002D09D000221F33009362
:10251000019505980E49131CFFF7A8FE051C3023F2
:10252000079398E7131CE0E70D9A1B9B934200DA90
:10253000131C172204A952181278511E8A419B18A5
:10254000069A9B18D1E7281C13B0F0BD58D802009A
:10255000004E0300F0B5071C00248DB005920D1C41
:102560002B78002B09D18D420BD96E1A3868321C9A
:102570007B689847A419291C03E0252BF3D001356B
:10258000EEE70B78002B00D134E120230026013147
:1025900009930B78002B12D02D2B01D12C3B02E09C
:1025A0002B2B02D1293B1E430FE0202B01D11C3BDA
:1025B000F9E7212B01D1193BF5E7302B02D000239D
:1025C000069304E04022099316430131E1E70B78BA
:1025D0001A1C303A092A07D80A22069801314243C8
:1025E000D318303B0693F2E708912E2B27D14B7876
:1025F0002A2B05D00B1C01330893002307930CE012
:10260000089B02330893059B1D1D1B680793DB4342
:10261000079ADB171A40079215E0089B1B781A1CD3
:10262000303A092A09D80A2207994A43D318303B7D
:102630000793089B01330893EFE7059D03E001230F
:10264000059D5B420793089B1B786C3B594259419F
:10265000089B5B1808931B780493002B00D1C9E0FA
:10266000642B00D187E013D8502B00D191E004D81F
:10267000453B022B00D89CE0B2E0049B622B1AD0B1
:1026800032D8582B00D0ABE02B1D0593412383E0BB
:10269000049B712B34D005D8672B00D889E0702BB0
:1026A00077D09DE0049B752B58D0782B71D0732B7D
:1026B00000D095E036E02B1D05932B68002B07D04A
:1026C000099B381C0093069B4C490193042206E0A9
:1026D000381C0522099B4A490093069B0193331C31
:1026E000FFF7C4FD241882E02B1D05932B680BA96E
:1026F0000B70099B381C0093069B01220193EEE7A7
:102700002B1D0BA92868059322F09CFA079B011C3E
:10271000013301D10B9B0793099B381C0093069B47
:10272000019311E02B1D2D680593002D0ED0079B02
:10273000013303D1281C27F0D6FD0790381C291C33
:10274000099B0093069B0193079AC8E7099B381CD5
:102750000093069B2B4901930622C0E72B1D05938E
:1027600061230093099B01960293069B381C0393F7
:10277000296800220BE02B1D05936123381C0122E0
:102780000093099B01960293069B039329680A23F1
:102790000CE02B1D059361230093099B381C0293C9
:1027A000069B0022039310230196296820F0AAF9C2
:1027B00098E7072307359D432B1C28686968083371
:1027C000059319F069FA099B011C0093069B381CBC
:1027D0000193079B049A0293331C20F002FA81E7CD
:1027E0003868089901227B68984701340595089953
:1027F0000131B4E6201C0DB0F0BDC0460413030047
:10280000091303000F130300184B73B530CB161CCC
:1028100001281AD94B68164A934207D09C0711D158
:10282000144C1D68A5420DD11C1C1D1C02280CD087
:102830008B68934209D09A0704D11A681C1C0D4B6F
:102840009A4202D0002009F0DDF8086801A907F0DB
:10285000AFF8019A011C0023102020F0D2F8311C9F
:102860002A1C231C08F0C6FE76BDC046342E00206C
:10287000B8010300A8D602000023820708D102682D
:10288000044901338A4203D0034BD31A5A425341BD
:10289000181C704704B70200F0B50200044B8860B2
:1028A0000B60044B081C4B600023CB607047C04694
:1028B000C0B902006B2D020030B585B0051C081CA4
:1028C000694608F0B7FA041C201C08F015FB011E2D
:1028D00007D0281D00221FF0FAFE0028F4D002487D
:1028E00000E0024805B030BD64F9020020F90200A2
:1028F00038B5051C102022F000FA041C074B69684B
:1029000008C01FF0DAFEAB68E968A3606B68E06896
:102910009A0027F0A5FC201C38BDC04604B7020071
:102920000023F7B5041C0D1C01938B0705D10B6820
:10293000224FDF1B7A427A410192AB68002B09D10A
:10294000019B002B03D0201C1D4920F0CDF8201C3A
:102950001C492FE0019B002B03D0201C1A4920F0BA
:10296000C3F8201C194920F0BFF8002601236A682B
:10297000964216D2B200171CEA68D259002A0ED02D
:10298000042A0CD0002B03D1201C114920F0ACF8F4
:10299000EB68201CD95901220DF0B6FD0023013649
:1029A000E5E7201C0B4920F09FF8019B002B03D08A
:1029B000201C094920F098F8F7BDC046F0B5020088
:1029C000381303003F1303004513030050130300A3
:1029D00052130300A19903009D8C030008B58307DF
:1029E00007D10268034B9A4203D10348034922F0FE
:1029F0007AF908BDF0B5020060FC0200551303002F
:102A000038B50D1C041CFFF7E9FF291C201D01220D
:102A10001FF05DFE004838BDB801030038B50D1C3D
:102A2000041CFFF7DBFF291C201D02221FF04FFEB4
:102A3000004838BDB801030070B5061C08680D1CBD
:102A40000124FFF7CBFFB44206D2A3002868E9585F
:102A500020F028F90134F6E7004870BDB801030002
:102A600038B50D1C041CFFF7B9FF281C002108F025
:102A7000E1F9051C281C08F03FFA011E04D0201DB6
:102A800003221FF024FEF5E7004838BDB80103001B
:102A900010B5041CFFF7A2FF201D1FF0A1FE014886
:102AA00010BDC046B801030008B5012220F02AF984
:102AB000004808BDB801030038B5041C0D1CFFF721
:102AC0008DFF201D291C02221FF001FE002804D1C9
:102AD000034825F0F1F911F0B7FB024838BDC046B4
:102AE00040FF0200B801030010B5041CFFF776FF99
:102AF000201D1FF057FE002803D10248024922F092
:102B0000F2F810BD40FF020077130300F8B501286A
:102B10000AD0002802D002280AD029E08B68154884
:102B2000002B26D1144824E08B685B00184320E07A
:102B3000032500200D4085421BD10C680F4B281C3B
:102B40009C4216D10E1C4F68BD420DD0F268AB00FE
:102B50009958002906D0042904D0022008F002F870
:102B6000401024180135EFE701206400204300E005
:102B70000020F8BD20F9020064F90200F0B502005F
:102B8000F7B5071C1020019122F0B7F8051C0A4B7D
:102B9000061C08C5281C391C1FF08FFD0024BC42F0
:102BA00008D0019AA300D158281C01221FF08FFDE4
:102BB0000134F4E7301CFEBD04B70200F7B5051C74
:102BC0000E1C171E2CD0FFF709FF194CB5422DD053
:102BD0000020011CFFF7D4FF0021041C301C08F06A
:102BE00029F90190019808F087F9061E0BD0281DDD
:102BF000311C00221FF06BFD0028F3D0201C311C7B
:102C0000FFF7FEFEEEE7002F10D0E86822F0A4F8F0
:102C100063686B60A368AB60E368054CEB6005E03C
:102C20008842D5D1281C20F04FF8041C201CFEBD82
:102C3000B8010300F0B589B0041C03900291019221
:102C40000027FFF719FEB84207D13A1C224801219C
:102C500003AB20F0AFF8041C0137029D0026281CAE
:102C6000FFF70AFEB04207D1321C1B48012102AB1C
:102C700020F0A0F8051C0136019B002B05D0002395
:102C8000AA680193A368934215D0144B0694049349
:102C9000134B05930023079304A820F066F8011E48
:102CA00007D0281D00221FF012FD0028F4D101904A
:102CB00001E001230193002F02D0201CFFF7E8FE62
:102CC000002E02D0281CFFF7E3FE019B0548002BD5
:102CD00000D1054809B0F0BD04B70200C0B9020038
:102CE0006B2D020020F9020064F90200F7B5151CF3
:102CF0000091019200278B0704D10B683A4E9E1B6E
:102D0000774277413A1C1F286BD80C1C16F030F81C
:102D1000241013696969186969696969691D293429
:102D20006969693E696969696943464B555A695FD2
:102D3000081C291C1DE0081C291C20F030F851E05B
:102D40006946022020F00CF84CE0002F04D06946C0
:102D50000220FFF771FE0AE0201C291C1FF0BBFFB8
:102D600040E0081C291C002F03D0FFF779FE201C2F
:102D700038E01FF0BAFF35E0081C291CFFF71EFFE2
:102D8000031C201C002F2DD1181C2BE069460220AB
:102D90001FF0B8FF26E0081C291C00E0281C0122B7
:102DA000FFF748FF1EE0281CFFF766FD031E0F48D3
:102DB00018D0A368AA68934214D1201C291C20F0C3
:102DC0002BF80FE0081C291C20F01EF80AE0081D53
:102DD0000022291C1FF07BFC031E054802D103487A
:102DE00000E00020FEBDC04604B7020064F9020006
:102DF00020F9020008B5031E044802D125F05CF852
:102E000002E0096825F05EF811F01EFAB0FA02003F
:102E100008B5034809680DF09BFB024808BDC04691
:102E20008CAC0200B8010300F7B5061C194D0C1C50
:102E3000281C1EF03BFC311C17481EF0A1FB174854
:102E40001EF034FC16481EF031FCFF239B00E618F0
:102E500021787F2916D0B44214D0627850290BD83B
:102E6000104B11485F5C114B5B5C0092A2780192A1
:102E70003A1C1EF085FB03E0A3780D481EF080FB92
:102E80000434E5E7281C1EF011FC0A481EF00EFC75
:102E9000F7BDC04693130300C0130300C81303001B
:102EA0009E140300E8950300E9130300399603001C
:102EB0000C140300BC140300F0B51D1C89B006906F
:102EC0001B48161C07911EF0F1FB291C19481EF027
:102ED00057FB19481EF0EAFB18481EF0E7FB0024D8
:102EE000AC4220DA079BA0001818C778069BBC46A6
:102EF0003F073F0F195D82780378009707889B068C
:102F0000FF047F0E019767463F0902970068120988
:102F10000003400E0390305D9B0E049008481EF0A5
:102F20002FFB0134DCE702481EF0C0FB09B0F0BD06
:102F3000931303002D1403005A1403008C14030090
:102F4000BE14030038B5051C141C1FF09EFF024B75
:102F50002560636038BDC046532E020010B50C1EBC
:102F60007F2C06D801211FF0D0FF002844D0047028
:102F700042E0224B99420FD802211FF0C6FF0028E1
:102F80003AD04022A3095242134303703F231C400E
:102F9000BF3B1C4344702FE0194B994214D80321C6
:102FA0001FF0B3FF002827D02022230B52421343E7
:102FB000037080213F23A20949421A401C400A4362
:102FC0000C434270847017E004211FF09EFF00281C
:102FD00012D01022A30C52421343037080213F23CE
:102FE000220B49421A400A434270A2091A401C406F
:102FF0000A430C438270C47010BDC046FF07000036
:10300000FFFF000007B5034B009068460193FFF7F0
:10301000A1FA07BD532E0200002805D0012809D1CE
:103020008B685B00184306E08B680348002B02D1D5
:10303000024800E00020704720F9020064F9020015
:10304000044B88600B60044B081C4B600023CB6072
:103050007047C046C0B902000F3002000021F0B531
:103060008568EA0F5219521091420DDA074BC66873
:10307000EB185B1A8C009B003419F6582768266001
:10308000C4680131E750EFE70148F0BDFFFFFF3FA3
:10309000B801030038B50D1C83684168041C8B42DD
:1030A00012D3C900C06821F046FE63680A495A007D
:1030B000A3686260D21A013352189B00E06092004C
:1030C000C018002127F0E9F8A368E268591C9B00AA
:1030D000A16002489D5038BDFFFFFF3FB8010300CB
:1030E000F8B5071C161C4C10836803D5E418E2439E
:1030F000D21714409C4200D91C1C0C4D381C291CB2
:10310000FFF7C8FFAC46BB6809495A1E5B189B0015
:103110001D1FF968A24204DD4859013AC8502B1C12
:10312000F6E7A4000E516046F8BDC046B8010300A2
:10313000FFFFFF3F38B50025041C85601021C068E3
:1031400021F0F9FD0423291CE0606360102227F0C0
:10315000A4F8014838BDC046B80103007FB50C1C77
:10316000114B02AD043100930138022301950BF09D
:10317000B3FB23680D4C9968012911D9D868029ACC
:103180000B4B2D79C918131B5E1EB34189005B429E
:103190001A404118074B002D00D1074B1FF046FF86
:1031A000201C04B070BDC046C4B80200B8010300C2
:1031B000FFFFFF3F64F9020020F9020070B50C68C0
:1031C000021CA368002B03D119481A4921F08BFD7A
:1031D0002068012A01D04A6801E001225242191CEC
:1031E00000230DF039FBE268A36881005618013B0B
:1031F000043151181A1A35689200A360301C27F068
:1032000038F80021A368E0689A0011506168042929
:103210000BD95B00994208D949088900E06821F080
:103220008AFD6368E0605B086360281C70BDC0466F
:10323000ECFA0200E014030007B5009001910220AF
:1032400069461FF055FF694601900220FFF7B6FF5F
:1032500000480EBDB801030070B50E1C0D49051CD9
:1032600000241FF041FCB3689C420ED2002C03D016
:10327000281C09491FF038FCF268A3009958281C43
:1032800001220DF041F90134EDE7281C03491FF03C
:103290002BFC70BD4D93030052130300719A030081
:1032A00070B50326041C0D1C0E4028D1174B0A686C
:1032B0009A4224D18B68826899184368994210D940
:1032C00004318900C06821F036FDAB68A268E06077
:1032D0009B181A1D9B006260C018311C102226F03A
:1032E000DCFFA368E9689800E3681818AB689A00E7
:1032F00026F0B6FFAB68A268D318A36003E0201CD9
:10330000291C1FF0FEFE024870BDC04614B8020022
:10331000B801030038B50B4B051C03600C1C081EDC
:10332000042800D204206860AC60800021F0E5FC35
:103330006A68E860121BA40092000019002126F0C0
:10334000ACFF38BD14B802007FB50D1C161C122846
:103350002AD004D8052807D007282BD058E0031C12
:10336000193B042B41D953E00322002332409A42F7
:103370004FD1131C3168284A91424AD1B368AA68D8
:1033800098181FF0D8FE041CAB68E9689A00C06862
:1033900026F066FFA868E36880001818B368F16833
:1033A0009A0026F05DFF1EE0081C111CFFF778FF55
:1033B0002B1C2EE0101C03A90DF0B4F90023984239
:1033C00027D0039A9A4200DA0393039BA8685843D4
:1033D0001FF0B1FEC368041C0093E8680421AA68CA
:1033E000039B23F07AFC231C13E00C4BB20710D193
:1033F000094A316891420CD1B368E9680093AA6820
:10340000F3680DF0C5FE064B002802D1034B00E027
:103410000023181C04B070BD14B8020064F9020047
:1034200020F90200F0B5041C8BB00E1C0327002A03
:1034300031D10F4027D1644B0A689A4223D180686A
:1034400004AA0DF02FFE002802D1604808F008FB06
:10345000059A0498E368851A910080005918181895
:10346000A3689A1A920026F004FFA3686A42E8183B
:10347000E368800018189200391C26F00EFFA3683C
:103480005D19A56005E0022007A907940896FFF7DB
:1034900095FE4F4896E0042A2BD139421FD14A4B62
:1034A0000A689A421BD1806807AA0DF0FBFD00282C
:1034B00005D1A068E16807AA23F022FC82E0079BFF
:1034C0000898C01A1FF037FE8368E1689A00079BCE
:1034D000051C9B00C918C06826F0C2FE71E00023DD
:1034E0002068A168321C0DF0B7F9E3688000C0586D
:1034F00068E00F40364D60D1334B096899425CD18A
:10350000101C02A903AA0DF071F9A068311C07AACA
:103510000DF0C8FD002898D0029A0798089B8618DD
:103520000193F61A002E25DDA368F118636899420D
:1035300007D98900E06821F0FEFBA368E060F3187A
:1035400063600799029AE36852180899900089000D
:1035500059181818A368B21AD218920026F089FEDA
:10356000079B03999800E3681818029B9A0026F0BD
:1035700080FE1EE0E368800018189200039926F090
:103580006FFE02990798089AE36808188000910076
:1035900059181818A3689A1A920026F06AFEA368B0
:1035A0007242F018E368800092001818391C26F067
:1035B00074FEA3689E19A66003E0201C311C1FF056
:1035C000FCFD281C0BB0F0BD34EE0200004E0300E1
:1035D000B801030008B50123021C8088A0218340A4
:1035E000181C054BC905C850111CD288083124F09D
:1035F00099FD024808BDC0460C050000B801030053
:10360000032310B5041CC28800215A43083026F059
:1036100044FE201CFFF7DEFF004810BDB801030088
:103620007FB50B1C061CC188151C00681A1C0023E2
:103630000DF012F903214843002D34D03418042D25
:1036400011D10120627AA37A520002430192227AB8
:103650008340824003430243081C01A90292039362
:103660000FF02AFB20E0281C01AA0DF0E1F8019BD5
:1036700018680DF019F8019B061C58680DF014F835
:10368000019B051C98680DF00FF8FF2E03D8FF2D45
:1036900001D8FF2802D9054807F0F4FFA07266722E
:1036A0002572034800E0281C04B070BDF414030028
:1036B000B8010300F7B51C1C081C0023111C0222D2
:1036C0000093131C0BF0D8F8206823F03DF8C7B224
:1036D00060680CF0E9FF041E02DC114807F0D2FF1D
:1036E0000326301C6043083021F007FB0D4B7FB2EE
:1036F000A2B2051C878072430360C4800021083099
:1037000026F0CBFD01203B1CA022B840C133FF3383
:10371000D2059B009E50044BD050281CFEBDC046D5
:103720000315030064B902000C05000000B58BB05E
:1037300004F0D4FD68461FF056FD054BD968091A00
:10374000890804F089FD04F0E1FD0BB000BDC0461E
:10375000342E002010B5102021F0CFFA041C034BAA
:1037600008C021F023FE201C10BDC04658D802001E
:1037700038B5052825D80D1C15F0FAFA05230B03DA
:10378000121A081C1EE08B680F48002B1AD10F4834
:1037900018E0081D22F080FA01214000084311E0E2
:1037A000FFF7D8FF291D041C043021F091FF06E02B
:1037B000FFF7D0FF291D041C043021F099FF201CC5
:1037C00000E0002038BDC04620F9020064F9020084
:1037D00038B5051C83070CD1104B02689A4208D1FA
:1037E000FFF7B8FF041C291D043021F066FF201CE0
:1037F00012E0281C0CF058FFC0231B06984205D18C
:1038000080200021C0051FF05DFD05E0C317C01832
:10381000584001234000184338BDC04658D8020024
:1038200007B5C30701D540100BE0043001A90BF028
:10383000EFFD002801D0019803E00248024921F081
:1038400052FA0EBD8CFE02001C150300F0B58BB0C1
:103850000190012008400D1C171C041E07D04B10BE
:1038600004A803A9022221F0E0FD04AE09E003232D
:103870000B4000D0FEE0814A0968914200D0E3E0AD
:103880002E1DFB0707D57B1004A803A9022221F0F7
:10389000CCFD04AD12E003231F4205D1774A3968FD
:1038A000914201D13D1D09E03B40022B00D0CDE00B
:1038B000734B3B40062B00D0CEE0C7E0019B092BA9
:1038C00001D0162B14D16B68002B3DD0301C22F098
:1038D00036FA041C281C22F032FA011C201C15F0B8
:1038E00049FE032302249843664B0443E018C2E0D8
:1038F000019B182B00D982E0FFF72CFF041C0198D4
:1039000015F036FA42483C4E4E0D13191F6A2C63CF
:103910006A42483C4E4E0D13191F6A2C6300201D4D
:10392000311C2A1C21F07BFFA4E0201D311C2A1C25
:1039300021F0B0FF9EE0201D311C2A1C22F0E6F889
:1039400098E06B68002B03D14F48504921F0CBF928
:1039500007A821F02BFD201D07A907E06B68002BAD
:10396000F2D007A821F022FD211D07A8321C2B1C34
:103970000BF0E4FB07A821F025FD7BE0201D311CA6
:103980002A1C21F0CFFF75E0201D311C2A1C22F0DB
:1039900049F86FE0201D311C2A1C0BF05BFB69E02D
:1039A000381CFFF73DFF021E02DA394807F06AFEB5
:1039B000019B201D311C032B01D0102B02D10BF0D9
:1039C000DDFA57E021F0CBFE54E06B68002B4CD0C1
:1039D0002B78DB0749D53FE06B68002BB4D0FFF7AD
:1039E000B9FE071C211D0430321C2B1C0BF0A6FB5A
:1039F00007A90220079708940FF05EF93BE0301CFE
:103A0000291C21F034FE019A031C193A0020042AD3
:103A100031D8101C15F0ACF90307130B0F001D482B
:103A2000002B28DA0EE01B48002B0BDC23E01948A2
:103A3000002B20DC06E01748002B03DA1BE01548BA
:103A4000002B18D1144816E0181C14E00198291C0A
:103A50003A1C09F023F90EE0301C22F070F93A1CF0
:103A6000011C0198FDF790FA05E0201D311C2A1C6D
:103A700022F0CFF8201C0BB0F0BDC04658D8020091
:103A8000070080FF000080808CFD02005B110300B6
:103A90004915030064F9020020F902002022074BB7
:103AA00007491A701D3A5A7004329A70002205486C
:103AB000DA7059601A725A727047C046D8010020F5
:103AC00074696275B801030002220B4B10B5DA6706
:103AD00000220121094B5A61094A11615A69002AE1
:103AE000FCD0084C88342068002803D021F034F939
:103AF0000023236010BDC04604E100E0FC1000403C
:103B000000100040342E002008B5FFF7DDFF01480B
:103B100008BDC046B8010300F8B5FFF7D5FF384D22
:103B20002E786C78063601347443201C21F0E5F8B9
:103B30000022344B041988331860334B86191C60FB
:103B4000324B01211E60324B5A608022D205116037
:103B50002A1C59680029FCD003242E4B14572E49E7
:103B600000255C50947804395C50547A08315C50DC
:103B700054682A492A4E5C50147A2A492A4F5C50CC
:103B800001242A495D5004315C5008219951812655
:103B90001278B6043243A326F6009A510226244A2C
:103BA0009E50244A9F50244F043A9F501827234A7E
:103BB0009F50234A9850C122C02092009950214919
:103BC00080000F58204A3A40C0273F023A430A502B
:103BD000C02252008E500E608021102089005A5859
:103BE00002435A50194A55605C605368002BFCD060
:103BF0000022164B1A61074B01329A60F8BDC0468D
:103C0000D8010020342E0020D4010020E40100203F
:103C1000FC000040001000400C0500001C050000E6
:103C20001405000024050000FFFF00002C05000023
:103C3000340500003C05000021100100540500007F
:103C40000405000000E100E0FF00FFFFFC10004061
:103C500008B5FFF761FF014808BDC046B801030081
:103C6000F0B5161C8DB0002802D0724807F0CAFECD
:103C7000714B09AA191CB0C9B0C21A789F78059275
:103C80005A78DD7806925A68049001921A7A5B7A23
:103C900003920293049B7268934216D2049BDB004A
:103CA0000793079AB3689B181A68002A09D0042A58
:103CB00000D080E005E0631EFA2B00D98CE0E3B26F
:103CC0000593049B01330493E4E75C4B09AC883310
:103CD0001B68002B13D16B461B7DA77023706B46AE
:103CE0001B7EE5706370019B0A936B461B7B2372FE
:103CF0006B461B7A6372504B07CC07C396E06B464A
:103D00001B7D4D4E23706B461B7E6370228833886B
:103D10009A4210D0FFF7D8FE019BA7700A936B461A
:103D20001B7BE57023726B461B7A63720ECC0EC64A
:103D3000FFF7F2FE7AE00222414B4249DA670023A4
:103D40008C464B61404B013A1A6163465B693E4ABF
:103D5000002BFAD06946019809AB0A90087BDD7008
:103D60001872087A9F70587233486DB252CB52C0A5
:103D7000364B0298D550043BD7500833D0500198A9
:103D8000334BD0500398334BD05000202D4B58600C
:103D90000123536063465B68002BFBD00022C021E7
:103DA000284B49001A61284B01329A602A4B013294
:103DB0005A501A603AE058680CF0A2FC079AB368AF
:103DC000041C985805F0B4F9021CB338FF380628D3
:103DD00008D92248224901E02048224910F01EF962
:103DE00010F032FA14F0CEFF67FF07000D0011004B
:103DF00016001B001D00631EFD2BEDD8E3B20693D9
:103E00005FE7532CE8D8E7B25BE7072CE4D8164B02
:103E10001D5D56E7022CDFD8E3B2029351E701940F
:103E20004FE7FF2CD8D8E3B203934AE70F480DB011
:103E3000F0BDC0466A150300D8010020342E0020D2
:103E400004E100E0FC100040001000400C05000000
:103E50001C0500002405000000E100E0A8F90200B4
:103E6000851503009B15030062150300B8010300CC
:103E7000F7B5171C334A0B1C88321568002D02D188
:103E8000314807F0FFFB0221304C314EE167A3249B
:103E9000E40034592F4EE4B206342C1935682E4A0A
:103EA0000196A54202D111602C484AE026780028EC
:103EB00013D1611C002B04D1081C311C05F02EF914
:103EC0001DE05868321E824200D9021C0125186884
:103ED00026F0CFF973001D4312E0022E06D800230E
:103EE0000E25037043708370C37009E0211C042207
:103EF00026F0B6F9201DF11E002205F0F7F8051C8A
:103F0000002F0ED0A21953785B423B60D378190280
:103F100013791B040B43917852790B431206134318
:103F20007B60019BB11D1F6861187A1A201C26F066
:103F3000A0F9BE1B019B063E1E600223281C064AF8
:103F40001360FEBD342E0020C015030004E100E024
:103F500000100040E401002000E100E0B80103008F
:103F60007FB5002001AA011CFFF782FF0A4A031E49
:103F700093420ED001210393019B03205A00029B20
:103F80000A439B00CB400B4303A9049205930EF018
:103F900093FE07B000BDC046B801030013B5002171
:103FA00001AC201C0A1CFFF763FF094B98420ED09E
:103FB0002378022B08D96378012B05D1A378002B35
:103FC00002D1E378012B02D0024807F05BFB16BD5B
:103FD000B8010300D5150300244BF7B55A68244FE8
:103FE000002A03D000225A600132BA601B69002BFC
:103FF0003BD000221D4B1A61A3231D4ADB00D3587E
:104000001C4ADBB2883211680C789C4201D91C1C16
:104010000B708023DB00FB58012B08D1164D174A8B
:104020002E68A31D12680093F3189A4202D201234E
:10403000BB601AE0631C1A1C301C019326F010F9B7
:10404000A9230B4ADB00D358019AB35414F0C2FAE7
:104050002B68020A1C19E270020C2271009AA070EF
:104060009B18000E60712B60E1E7F7BDFC1000406B
:1040700000100040342E0020E4010020D401002074
:10408000F7B5344E1F1C331C883300921A688446DF
:104090000C1C002A02D1304807F0F4FA02212F4B01
:1040A0002F4DD96700212F4B6961013119610193AF
:1040B0006B69002BFCD0A3232A49DB00CB58E11904
:1040C000DBB2994204D91F1B9C4201D91C1C00275A
:1040D0003B191370883633686146581C221C26F041
:1040E000BFF8002F06D030680134001900993A1C3F
:1040F00026F0B6F80023019A6B60013313606B68F9
:10410000002BFCD00122174B9A600022144B1A613D
:104110002B69002BFCD00022114B5A61114B01324C
:104120001A616B69002BFCD000220D4B5A600D4BBD
:1041300001325A606B68002BFCD00022C021084B72
:1041400049001A61074B01329A60074B01325A50FD
:104150001A60F7BD342E0020C015030004E100E012
:10416000FC1000400010004000E100E007B501A98C
:1041700005F01EFC0321021C019B0248FFF780FF93
:1041800001480EBD5E150300B80103001FB50122F2
:1041900001A90CF049FC002201980299131CFFF7B9
:1041A0006FFF014805B000BDB801030008B53E2807
:1041B00003D0402809D03C2811D14239C9B22F2957
:1041C0000DD80A4B585C012307E00139C9B27029A8
:1041D00005D8074B585C074B5B56002802D10648B0
:1041E00007F050FA002A00D0136008BD0216030041
:1041F00032160300A3160300F515030008B5512875
:1042000036D00FD8492827D006D842281CD04828B5
:104210001FD001284BD117E04F2840D042D84C285E
:104220001AD044E0682811D007D864282AD066281C
:1042300025D062283BD188563AE06C2832D07128CC
:104240000FD0692833D12DE0885C31E05200505EF8
:104250002EE05200505A2BE0920050581FF05CF8AC
:1042600029E0D2008A18106851681FF02BF822E06C
:10427000D2008A18106851681FF03FF81BE09200C6
:10428000505805E0D2008A181068516817F004FDF4
:1042900003239843013B1843074BC0180BE09200DF
:1042A000505808E0920050581FF01BF803E000201F
:1042B00001234000184308BD00008080F7B5161C9C
:1042C000156801AA041C0F1CFFF770FF402C05D1D4
:1042D000019B043C5A1EAD185B421D402B183360F5
:1042E000221C5A263E3ABE42B641544262417642B0
:1042F0002B1CD2B2311C1FF056F8041C0D1C4F2F82
:104300003ED0532F08D1201C25F0EDFF0022011CC8
:10431000201C04F0EBFE33E0662F06D103230220BD
:104320009C43184B0443E0182AE0642F09D1201C59
:1043300017F0B2FC032302249843124B2043C01809
:104340001EE0002E10D080220023D20512196B41EE
:10435000201C002B04D1002A02DB1EF0C2FF0FE05C
:10436000291C1EF0AFFF0BE0201C002905D1064BD5
:104370009C4202D81EF0D0FF02E0291C1EF0BDFFB7
:10438000FEBDC04600008080FFFFFF3FF0B587B054
:10439000161C03AA01931C6800900F1CFFF706FF70
:1043A000009B051C402B06D1039B5A1EA4185B42A0
:1043B0001C403C230093019A63191360009B3E3B11
:1043C0000193642F09D0662F02D04F2F23D147E0ED
:1043D000301C0CF0CDF9061C42E0301C0CF0C8F982
:1043E00017F006FC019E0490059173425E41F6B2FF
:1043F000B30006AAD318083B311C221C1B680420FA
:104400001EF0FAFF01235E40B60006AB9E19083E7F
:104410000434366824E0B3070DD1184B32689A4251
:1044200009D10199301C4B4259412A1CC9B2231CA5
:104430001EF024FF20E0301C0CF036F9061C042D81
:104440000ED900215A2F02D9884200DAFF31201CF0
:104450002A1C25F022FF009B3E2B01D12B1FE418C4
:10446000281E042800D904200199221C4B425941DE
:10447000331CC9B21EF0C0FF07B0F0BD58D802000F
:10448000F7B5071C0E1C141C1D1C64280DD06628D3
:1044900004D04F2813D19400A3512EE09400181C8F
:1044A0000E190CF065F9306027E0D400181C0E19C5
:1044B0000CF05EF917F09CFB306071601DE0032387
:1044C0002B40019310D10D4B2A689A420CD1391C14
:1044D000019A4020FFF76AFE4443021C3319281C4E
:1044E00001991EF0CBFE08E0281C0CF0DDF8311C11
:1044F000031C221C381C1EF092FFF7BD58D8020086
:10450000F8B5041C03780020834200D19CE0402BC6
:1045100001D1012528E0201C4C491EF0C1FF0028D4
:10452000F7D1201C4A491EF0BBFF0028F1D1201C06
:1045300048491EF0B5FF0028EBD1201C46491EF06B
:10454000AFFF0028E5D1201C44491EF0A9FF002838
:10455000DFD1201C42491EF0A3FF0028D9D1201C26
:1045600040491EF09DFF051C0023191C1E1C1F1C2A
:104570002278002A53D0272A10D1002B01D0032BF8
:1045800008D16278272A05D1A278272A02D10234DD
:10459000243A16E00122012B3FD812E0222A12D140
:1045A000181C1E3A904309D16078222804D1A078C3
:1045B000222801D1023404E0002B01D0022B2CD19F
:1045C0000222D31A29E05C2A0BD16078272803D075
:1045D000222801D05C2804D11A1C501E8241A41844
:1045E0001BE0002B19D15B2A12D006D8282A0DD047
:1045F000293A50424241BF1A0FE07B2A0AD07D2A55
:104600000AD05D3A50424241B61A06E0013704E052
:10461000013602E0013100E001390134A8E7012050
:10462000002F11DC002E0FDC00290DDC033B834240
:104630000AD9013C23785C2B06D0101C002D03D036
:104640000A3B581E8341D8B2F8BDC0462912030068
:104650005A12030040120300561203007C44030068
:10466000BA9F030087940300F0B545188BB0039000
:10467000049207930195019B5C1E039B9C4210D3FF
:1046800020780DF0A1F8002809D120780DF0A8F8C5
:10469000002804D123785F2B01D02E2B02D1019466
:1046A000E9E701937C4B1F68019CAC4209D3019B55
:1046B0000026E31A0093AC4210D3341C351C02963A
:1046C00047E023782E2BF2D00134EEE7F30002937B
:1046D000029AFB689858002804D10136BB689E42B4
:1046E000F4D315E00428F8D009A905F061F9009B7E
:1046F000099A011C9342F0D101981A1C25F0FAFD89
:104700000028EAD1FB68029A9F187868002801D136
:104710000020BFE083070AD10368604A934203D1B7
:1047200022F01EF8071C0BE05D4A934201D00BF00B
:10473000D1FE876B002FEBD05A4B3A689A42E7D1F3
:10474000631C0193B0E7FA68F3009858002804D17D
:104750000136BB689E42F6D329E00428F8D009A9A7
:1047600005F026F9099B05900693069A009B934253
:10477000EED8019805991A1C25F0BCFD0028E7D158
:10478000009B002D0BD0A3420DD8069A93420AD865
:10479000059AE95CD25C914204D10133F3E7069CAF
:1047A000059D00E01C1C029B01330293D0E7029B95
:1047B000002B13D1019B039A9342A9D13A4C181CA8
:1047C000211C009A25F03DFD0028A1D1009B073057
:1047D000E418079B1C60009BC01A5BE0029B012B46
:1047E00002D0009B9C4206D9009B079AEB181360ED
:1047F000009BE01A4EE000264025BB689E4243D253
:10480000FA68F300985800283CD004283AD009A947
:1048100005F0CEF8099B03900293029A009B934205
:1048200030D8019803991A1C25F064FD002829D17D
:104830002B1C0F33DC17240FE41824112401641BF4
:10484000012C00DC1034029A2B199B1800220292D2
:10485000402B11D8029B0498A34206DA13491EF09C
:1048600043F9029B01330293F4E703991EF03CF9EC
:10487000099BED182D1905E004980D49039A1EF0C7
:10488000FCF9099D0136B8E704980A491EF02CF995
:10489000012040420BB0F0BD342E0020E0E80200C1
:1048A000C8F20200A8D6020018170300A38903006B
:1048B000141703006F2F030038B50523041C094AA1
:1048C000094D1068434309481B199B0018582B6871
:1048D000146018180F2319400901286002F090FE97
:1048E00038BDC046E8010020B82B0020E0BA020025
:1048F000A839031C00B5081E06282ED814F038FA73
:10490000040A10151B2027009A18E223DB00D21896
:10491000107826E0C4329200D05C8006800E20E041
:10492000C4329200D05AC00403E0C4329200D0587E
:104930000003400E15E0C43292009A1890780AE005
:10494000C43292009A18D0780007000F09E0C432F0
:1049500092009A18D078000903E00020014A024B27
:104960001A6000BDE71E030064000020A83910B5DE
:10497000041C081E062846D814F0FAF9040A131E6F
:1049800029333B00E221A218C900521813703DE000
:104990003F20C4329200115D034081430B43135505
:1049A00034E07F21C43292000B409901105B184B18
:1049B00003400B43135329E07F21C43292000B4084
:1049C000105914495B0301400B4313511EE00F21A2
:1049D000C4329200A21890781B0101400B439370DF
:1049E00014E00F20C4329200A218D1780340814312
:1049F00006E00F21C4329200A218D0781B010140BA
:104A00000B43D37002E0044A044B1A6010BDC04649
:104A10003FE0FFFFFF1FF0FFF21E030064000020D5
:104A2000F0B585B003930723D2B21340013BDBB24C
:104A30000F1C042B02D92B4C2B490C602B49CE5C4C
:104A400007211B028A43019308D1294BC55C2D091C
:104A5000ED43EBB23D7800932C1C1FE0D443E4B24D
:104A60000825244B019A1B199B5C5F00FFB2DB09F0
:104A700004D002200521FFF71FFF05E00120311CB3
:104A8000FFF71AFF002EF4D0013DEDB23B1C002DC4
:104A9000EBD10134E4B2002CE2D120E00826154B22
:104AA000019A1B199B5C5A00D2B20292DB0902D018
:104AB00003201A2101E004200621013EF6B2FFF78F
:104AC000FBFE029B002EEED1009B0134E4B25B1B87
:104AD0001B19DBB2002BE1D1009BED1A3D7003984E
:104AE00005B0F0BDFE1E030064000020112203008B
:104AF00019070000201703000022F0B5051CFF2451
:104B00008BB008AB0191DA71231CC4339B00EB1806
:104B10009978604E0A09B05C0F22000111400143F0
:104B20009970D9780807000F375C914317403943D3
:104B30000809305C0A4000010243DA70013CE3D20C
:104B4000E223DB00EE5CB308F31ADBB20693524BB0
:104B50001B68002B0BD081231B01E818C4239B008A
:104B6000E918E223DB00EA18019BFEF7A5F900240F
:104B70004823271C04930394029481222B191201C9
:104B80009B181B7805930723059A9A4307920BD02D
:104B900008ABD91D281C231C059AFFF741FF019B78
:104BA0000230C4B2023B32E03C48029BC35C9C46EC
:104BB000231C6246C4339B00EB189978DB78090903
:104BC0001143374A515C039A805C1A07120F104355
:104BD000334A1B09105C40183249C95D0B43D15C54
:104BE00001234118FF2801DC6B461B7FC918783967
:104BF000C9B209090020FFF75FFE049B013BDBB24D
:104C00000493002B0AD1019B0134E4B2013BDBB2D7
:104C10000193019B002B3BD02B780493013EF6B20D
:104C2000002E0CD1E22200272B19D2009B181E78EF
:104C30000397B308F31ADBB2069302979DE7069B2E
:104C4000013BDBB20693002B02D1059B002B16D152
:104C5000221CC4329200535D02999B069B0ECB1816
:104C6000DBB20293535B0399DB045B0ECB18DBB220
:104C7000039353591B035B0EFB18DFB27DE708ABB0
:104C8000D91D281C231C059AFFF7CAFE041CC9E77E
:104C90000BB0F0BD6C1F0300800200204D2203000A
:104CA000701C0300CD1F0300064A125C002A05D0C9
:104CB000054A135C4B43D811C0B201E0034A105CB3
:104CC0007047C0466D21030016220300201C03001C
:104CD000064A125C002A05D0054A135C4B43D811E2
:104CE000C0B201E0034A105C7047C0466D2103006A
:104CF000101E0300C1210300F0B5037A8BB07F2B97
:104D000000D14DE1031C071C0025041C0933FF33AF
:104D10000837099300953E787F2E03D10023029334
:104D20000093DEE0012E02D1201C311C03E0022E94
:104D300005D1201CFF21009A2B1C1EF0CEFB994AA6
:104D4000BB78301CD3185B780093FB780193A17873
:104D5000FFF7AAFF3F2318400290E178301CFFF7CD
:104D6000B7FF7F23904A1840925D03901A408F4B03
:104D700004929A5D0F231A4005928D4A925D1A4063
:104D800006928C4A925D1A408B4B07929B5D08936A
:104D90007B78EB18DBB29C462A1C3F21C432920080
:104DA000135D8B4302990B431355105B039B83499F
:104DB0009B01014019431153049B10595903804B27
:104DC00018400B1C03430F20135105991E0C06407D
:104DD0000901A21831431B0E069E91708343079967
:104DE0003343090118400843D070694620208122CE
:104DF00009186319097812019A181170E222D20079
:104E00009B180199009A01355218EDB21A70654548
:104E1000C2D1099B04379F4200D07CE77EE76949F5
:104E2000CD5C8E5C6849AE4264D18D5CCB5C0493F2
:104E3000039B597A009B5918CBB20093049B5B19D2
:104E4000DBB20693023B1B0647D4A826009B5D1BE2
:104E5000EBB20593A82E55D1039B311C5F7A5A7B88
:104E60007F085208D3190193009B201C9A18D2B2D4
:104E7000DF1BFFF73DFDFFB2051C311C201C3A1C57
:104E8000FFF736FD2D1AEDB27F232A1C6DB29A432F
:104E9000EB17E81858400199079214F0FDF8281C08
:104EA000CBB20199089314F011F80025C3B2059F05
:104EB00009933A1C311C201CFFF71AFD019A059931
:104EC000099B01375218C318FFB2D2B2DBB2BA4203
:104ED0002BD10136F6B2AF2EBCD1029B0133DBB22F
:104EE0000293029B9B00E31803931A7A1B7B7F2B90
:104EF00095D133E03548AE4201D2C55C96E78D5C72
:104F0000835C94E7049B009A311C9A18D2B2201C4F
:104F1000FFF7EEFC311C051C059A201CFFF7E8FC8E
:104F2000069B2D1AEDB20193AEE7089AAD18019ACF
:104F3000EDB295420CD3AD1A6A46127FEDB252B271
:104F4000002A03DB002B03D0013300E0013BDBB27E
:104F5000201C311C3A1CFFF709FDAAE7029B023313
:104F60009B00E3185978009B59186368C9B2002B5D
:104F700003D0201CFFF7C0FD12E0E222D200A018EF
:104F80001A1CC4329200125D05789206D20EAA1A3B
:104F9000027080220133013052009342F0D1E8E7E1
:104FA0000BB0F0BD611F0300701D0300CD20030096
:104FB000111F0300C01D03007D1F03003FE0FFFF22
:104FC000FF1FF0FF471E0300971E03001D21030073
:104FD000014BD8607047C046342E0020034B82B08E
:104FE000DB6801A8181A02B07047C046342E0020B2
:104FF000014B18617047C046342E002008B54E2181
:10500000024822F05FFF0FF01FF9C046E4F90200EA
:1050100007B5054A01ABD1681269CB1A934201D397
:10502000FFF7ECFF07BDC046342E002010B50B1C67
:10503000041C002906D0054A096802609A6B002307
:105040000FF058F8201C0FF0FFF8C046C8FE020011
:10505000F0B5041C87B0039202936718002A0BD0A6
:10506000023A222A08D9384806F00CFB20780CF0C6
:105070009FFB002803D00134BC42F7D30AE0237819
:105080002B2B01D1013405E0051C2D2B03D101345C
:10509000012500E00025391B201C03AA20F080FF19
:1050A00023181C1C00260193BC420BD223781A1C27
:1050B000303A0092092A0CD9202213431A1C613A73
:1050C000192A04D9331C002D15D0734213E0573B25
:1050D00000930399009B8B42F4D2301C0DF0DEFA52
:1050E00000281AD1039B5E43009B9E1973007340F6
:1050F00013D40134D8E701255B001D43019B9C427A
:1051000016D0BC4206D220780CF052FB00280FD0FB
:105110000134F6E7BC4213D00AE0019B2A1C059338
:10512000F91A05A8039B1EF002F9059C051CE5E78A
:1051300006490748039A0EF071FF0299FFF776FFC0
:10514000281C07B0F0BDC0464D23030070230300A8
:10515000A8F90200F0B5041C8BB00993431808921B
:105160000193019B9C4200D308E120780CF020FBC6
:10517000002801D00134F4E723782B2B02D101342D
:10518000049005E004902D2B0ED12C3B01340493A8
:10519000019B9C4208D37F4B002706930023251CCC
:1051A00007973E1C039355E0202322781A43692A6F
:1051B0002ED10199A21C914200D8B8E062781A431E
:1051C0006E2A00D0B3E0A2781A43662A00D0AEE07F
:1051D000E21DE51C914200D8A2E0E2781A43692A58
:1051E00000D09DE022791A436E2A00D098E06279BF
:1051F0001A43692A00D093E0A2791A43742A00D096
:105200008EE0E2791343792B00D089E0053587E001
:105210006E2AC0D10199A21C914200D887E0627821
:105220001A43612A00D082E0A27813436E2B7ED10C
:10523000E51C0026584F76E06B1C02932B781A1C55
:10524000303A0592092A2BD8022E07D10A237B4334
:10525000D718029D019B9D42EED34FE0012E10D145
:10526000059814F091FE069914F076FB011C039842
:1052700014F004F847490390069814F06DFB06906B
:10528000E7E74649039814F067FB051C059814F0FE
:105290007BFE011C281C13F0F1FF00260390D8E7C9
:1052A000002E02D12E2B02D126E0022E19D0202270
:1052B0001A43652A15D1029B019A93420BD26B784F
:1052C0002B2B02D1AB1C029305E02D2B03D1AB1C81
:1052D000029301230793029B019A934247D002262F
:1052E000B7E70026089AB24209D0202213436A2B5E
:1052F00005D1029D013602E00126AAE70026079BA0
:10530000002B00D07F42381C14F0F6FD011C23480E
:1053100017F0A4FF011C039814F01EFB071C02E009
:10532000FF270026FF05049B002B09D005E0049B06
:10533000002B1CD0251C0026002780231B06FF18ED
:10534000A54214D0019B9D4206D228780CF030FA79
:1053500000280CD00135F5E7019B9D4207D1002EB6
:1053600002D1099B002B0CD00D480E4901E00C48DE
:105370000D4922F0AEFD1099FFF758FE002304936B
:1053800009E7032302209F43084B0743F8180BB09B
:10539000F0BDC046CDCCCC3D0000C07F0000204118
:1053A000A8F9020098230300B523030000008080C1
:1053B00008B522F0DFFE014808BDC046B801030071
:1053C00008B5C30708D4830709D10368094A934283
:1053D00002D0094A934202D10BF066F903E00BF0C8
:1053E000C7F914F069FD002801DD1FF036FA034803
:1053F00008BDC04658D8020028F90200B8010300D1
:10540000012208B50A4B1A600A4B094A596800295B
:10541000FAD000215960A123DB00D3580131D817FD
:10542000800FC018516080101DF05BFF08BDC046A2
:1054300000C00040FCC0004008B5002801D104486D
:1054400002E008680BF030F910F004FC014808BDD8
:10545000E7030000B801030008B50B1C4179021CEA
:10546000012904D1C06A191C1FF035FE04E0006B4D
:105470000249D26A1FF059FE08BDC04614EE020070
:1054800008B50B1C4179021C012904D1C06A191C02
:105490001FF032FE04E0006B0249D26A1FF045FEA5
:1054A00008BDC04604EE020008B50B1C4179021C81
:1054B000012904D1C06A191C1FF01EFE04E0006B14
:1054C0000249D26A1FF031FE08BDC04624EE020038
:1054D00030B50B7885B04C1C002B74D00C1C051C0F
:1054E000032B09D1081C03A921F04CFB0399041CD0
:1054F000286B21F0AFFE66E0012B07D1497802341A
:10550000042960D0006B0CF0ABFA5CE0042B07D1EF
:105510008978637809021943006B21F0E1FE16E0F7
:10552000052B19D14379042B02D0006B27490CE0DD
:1055300088784B780002184303A91FF083FB039976
:105540002D6B03F0EBFD011C281C21F0D5FE201C67
:1055500021F053FB041C36E01A1C0A3A081C0F2ADF
:1055600008D803A91DF0EDFF0399041C281CFFF7C0
:1055700073FF28E0082B0BD103A921F0F9FA039B54
:105580002A6A9B00041C9958286B21F0B5FE1AE08A
:1055900002AA03AB01A921F061FB041C0299286B4C
:1055A0000CF012FA019B0A4A9B009B58281C211CF4
:1055B000039A9847AB68002B04D0EB68002B01D10D
:1055C000029BEB60039C201C05B030BDB8010300BA
:1055D00098BC0200F8B5051C161CFFF779FF041CE7
:1055E000B44211D06778A11C281CFFF771FF3B1C47
:1055F0002F3BDBB2041C0421082B01D8034AD15CE9
:10560000286B21F0ECFFEBE7F8BDC046CF23030089
:1056100008B56722014B1EF0C3F908BD773F0200B1
:1056200008B59722014B1EF0BBF908BDE9660000E2
:10563000F7B5041C8579868A0F1CC18A0020019168
:10564000A071A082E082111C201C1A1C0F4B1EF0BE
:10565000A7F9A368002B18D1E18A002908D0A38AF2
:10566000002B05D1206B21F0DDFF206B21F059FECE
:10567000A38AE28A201C391C1DF0B9FF6B1E9D41D4
:105680006B469B88A571A682E382F7BDFD62000090
:1056900038B58368002B0BD1041C0D1C0548111C68
:1056A00022F017FCA060201C291C0C301EF0EDF924
:1056B00038BDC046C8FE0200F0B591B06B46041C70
:1056C00005921B7D0D1C4371E162002101612B7865
:1056D000072B01D0A44A43E0059B012B06D9221CCD
:1056E000836B05991B68406B08329847AB68181CA0
:1056F000089321F082FA63790890032B0FD10D9063
:1057000040210DA821F092FAA36B021C9B68606BEC
:105710000D999847A368E882002B00D01DE10898F6
:1057200021F06BFA08900378011C002B21D00A3B72
:105730000F2B1AD80DA91DF004FF95220D9B920086
:10574000934216D002D80125483A04E0874A934292
:1057500009D00325864A93420CD0201C0899854A1B
:10576000FFF796FFFEE0002504E0201C824AFFF7C9
:105770008FFF0225089821F040FA1821089008A808
:1057800021F054FA089B07900693069B079A9342D0
:1057900000D1C6E0069B08931B78222B00D1BBE00A
:1057A0001F2B03D0201C0899744AD9E7069809A931
:1057B00021F02DFA0378061C432BF3D121F01DFABA
:1057C000099B9842EED1301C09A921F020FA0378F8
:1057D000071C0A3B0F2BE5D821F00FFA099B061E88
:1057E0009E42DFD00378472BDCD121F006FA099BDB
:1057F0009842D7D10AA9381C1DF0A3FE301C21F015
:1058000001FA9F210B900BA821F010FA011C0B98B4
:1058100021F0E7F99B220A9B061C920093421FD1BC
:10582000012804D10B9803780A3B0F2B03D9201CC5
:105830000899534A94E72669731C2361059B012B41
:1058400067D90DA91DF07DFEA36B606BDB68311C71
:105850000D9A984700285CD1201C0899494A7FE797
:10586000494A934214D1012803D10B980378032BA2
:1058700003D0201C0899454A72E7059B012B48D9A3
:10588000666B21F08EF9011C301C22F0C3FA40E057
:1058900089229200934226D1012803D90B980378DC
:1058A000032B03D0201C0899394A59E7059B012B8B
:1058B0002FD90CA921F066F901270B900B980378DA
:1058C000032B03D0201C0899324A49E70DA921F087
:1058D00059F901370B900C99606B0D9A22F0A1FADF
:1058E000B742EBD115E0059B012B12D9032800D953
:1058F00058E70B9B181C0D9321F07FF90E9021F0B7
:105900007CF9A36B0F901F69606B0A99321C0DAB79
:10591000B847A368002B20D1069821F06EF90690B5
:1059200033E76379012B15D9A36B606B5B68291C86
:1059300098476379042B0DD10021E26A0091D08A47
:10594000636B02910190039510690531DA689B68D9
:105950000DF070FFA368002B04D0201C08990C30B8
:105960001EF093F811B0F0BDE32303009102000094
:10597000D902000007240300142403003C24030080
:105980005F2403007B240300FF0100008B2403003D
:10599000A7240300CC24030008B5024AFFF778FED1
:1059A00008BDC046EE240300F0B587B005930B1C7C
:1059B000141C5A1E93410091DBB2061C0599201C51
:1059C0000193002521F00DF9019B0290AB4209D013
:1059D000009B1B783A2B05D1291C306B029A21F0D1
:1059E00092FE009D271C029B013B0493019B0393A5
:1059F000059B9F421CD03B783A2B0ED1002D06D13F
:105A0000306B0399049A21F07EFE3D1C05E0301CAA
:105A1000391C214AFFF73CFE3BE0381C21F0EDF831
:105A2000039B071C01330393049B013B0493DFE7B3
:105A3000002D07D1019A029B94466344191C306BD8
:105A400021F055FE019B002B1CD0009BAB4205D1E1
:105A5000281C21F0D7F8011C301C01E0301C0099F3
:105A6000002200F01BF80DE0AC420FD1201C21F009
:105A7000C9F8011C301C002200F010F8201C21F095
:105A8000BCF8041C059B9C42EED102E0301C211C9A
:105A9000F1E707B0F0BDC0460B250300F0B50B7869
:105AA000171C1A1C0A3A85B0041C0D1C0F2A0FD8AB
:105AB000081C03A91DF045FD201C0399002F01D0EF
:105AC000022F02D1FFF7DCFCE1E0FFF7C5FCDEE0CE
:105AD000192B01D86F4AD8E01A3B2A2B00D183E05A
